{
  "_format": "hh-sol-artifact-1",
  "contractName": "Escrow",
  "sourceName": "contracts/Escrow.sol",
  "abi": [
    {
      "anonymous": false,
      "inputs": [
        {
          "indexed": false,
          "internalType": "address",
          "name": "previousAdmin",
          "type": "address"
        },
        {
          "indexed": false,
          "internalType": "address",
          "name": "newAdmin",
          "type": "address"
        }
      ],
      "name": "AdminChanged",
      "type": "event"
    },
    {
      "anonymous": false,
      "inputs": [
        {
          "indexed": true,
          "internalType": "address",
          "name": "beacon",
          "type": "address"
        }
      ],
      "name": "BeaconUpgraded",
      "type": "event"
    },
    {
      "anonymous": false,
      "inputs": [
        {
          "indexed": true,
          "internalType": "address",
          "name": "depositor",
          "type": "address"
        },
        {
          "indexed": true,
          "internalType": "uint256",
          "name": "amount",
          "type": "uint256"
        },
        {
          "indexed": true,
          "internalType": "address",
          "name": "token",
          "type": "address"
        }
      ],
      "name": "DepositReceived",
      "type": "event"
    },
    {
      "anonymous": false,
      "inputs": [
        {
          "indexed": true,
          "internalType": "address",
          "name": "recipient",
          "type": "address"
        },
        {
          "indexed": true,
          "internalType": "uint256",
          "name": "amount",
          "type": "uint256"
        },
        {
          "indexed": true,
          "internalType": "address",
          "name": "token",
          "type": "address"
        }
      ],
      "name": "FundsWithdrawn",
      "type": "event"
    },
    {
      "anonymous": false,
      "inputs": [
        {
          "indexed": false,
          "internalType": "uint8",
          "name": "version",
          "type": "uint8"
        }
      ],
      "name": "Initialized",
      "type": "event"
    },
    {
      "anonymous": false,
      "inputs": [
        {
          "indexed": true,
          "internalType": "address",
          "name": "previousOwner",
          "type": "address"
        },
        {
          "indexed": true,
          "internalType": "address",
          "name": "newOwner",
          "type": "address"
        }
      ],
      "name": "OwnershipTransferred",
      "type": "event"
    },
    {
      "anonymous": false,
      "inputs": [
        {
          "indexed": true,
          "internalType": "address",
          "name": "implementation",
          "type": "address"
        }
      ],
      "name": "Upgraded",
      "type": "event"
    },
    {
      "inputs": [
        {
          "internalType": "address",
          "name": "",
          "type": "address"
        }
      ],
      "name": "authorizedTokens",
      "outputs": [
        {
          "internalType": "bool",
          "name": "",
          "type": "bool"
        }
      ],
      "stateMutability": "view",
      "type": "function"
    },
    {
      "inputs": [
        {
          "internalType": "address",
          "name": "",
          "type": "address"
        },
        {
          "internalType": "address",
          "name": "",
          "type": "address"
        }
      ],
      "name": "claimerBalance",
      "outputs": [
        {
          "internalType": "uint256",
          "name": "",
          "type": "uint256"
        }
      ],
      "stateMutability": "view",
      "type": "function"
    },
    {
      "inputs": [
        {
          "internalType": "address",
          "name": "",
          "type": "address"
        }
      ],
      "name": "claimerNativeBalance",
      "outputs": [
        {
          "internalType": "uint256",
          "name": "",
          "type": "uint256"
        }
      ],
      "stateMutability": "view",
      "type": "function"
    },
    {
      "inputs": [
        {
          "internalType": "address",
          "name": "token",
          "type": "address"
        },
        {
          "internalType": "uint256",
          "name": "amount",
          "type": "uint256"
        }
      ],
      "name": "depositERC20",
      "outputs": [],
      "stateMutability": "nonpayable",
      "type": "function"
    },
    {
      "inputs": [],
      "name": "depositNativeToken",
      "outputs": [],
      "stateMutability": "payable",
      "type": "function"
    },
    {
      "inputs": [
        {
          "internalType": "address",
          "name": "token",
          "type": "address"
        },
        {
          "internalType": "uint256",
          "name": "amount",
          "type": "uint256"
        }
      ],
      "name": "depositValidatorERC20",
      "outputs": [],
      "stateMutability": "nonpayable",
      "type": "function"
    },
    {
      "inputs": [],
      "name": "depositValidatorNativeToken",
      "outputs": [],
      "stateMutability": "payable",
      "type": "function"
    },
    {
      "inputs": [],
      "name": "initialize",
      "outputs": [],
      "stateMutability": "nonpayable",
      "type": "function"
    },
    {
      "inputs": [
        {
          "internalType": "address",
          "name": "token",
          "type": "address"
        }
      ],
      "name": "isAuthorizedToken",
      "outputs": [
        {
          "internalType": "bool",
          "name": "",
          "type": "bool"
        }
      ],
      "stateMutability": "view",
      "type": "function"
    },
    {
      "inputs": [],
      "name": "owner",
      "outputs": [
        {
          "internalType": "address",
          "name": "",
          "type": "address"
        }
      ],
      "stateMutability": "view",
      "type": "function"
    },
    {
      "inputs": [],
      "name": "proxiableUUID",
      "outputs": [
        {
          "internalType": "bytes32",
          "name": "",
          "type": "bytes32"
        }
      ],
      "stateMutability": "view",
      "type": "function"
    },
    {
      "inputs": [],
      "name": "renounceOwnership",
      "outputs": [],
      "stateMutability": "nonpayable",
      "type": "function"
    },
    {
      "inputs": [
        {
          "internalType": "address",
          "name": "token",
          "type": "address"
        },
        {
          "internalType": "bool",
          "name": "isAuthorized",
          "type": "bool"
        }
      ],
      "name": "setToken",
      "outputs": [],
      "stateMutability": "nonpayable",
      "type": "function"
    },
    {
      "inputs": [
        {
          "internalType": "address",
          "name": "newOwner",
          "type": "address"
        }
      ],
      "name": "transferOwnership",
      "outputs": [],
      "stateMutability": "nonpayable",
      "type": "function"
    },
    {
      "inputs": [
        {
          "internalType": "address",
          "name": "",
          "type": "address"
        }
      ],
      "name": "treasury",
      "outputs": [
        {
          "internalType": "uint256",
          "name": "",
          "type": "uint256"
        }
      ],
      "stateMutability": "view",
      "type": "function"
    },
    {
      "inputs": [
        {
          "internalType": "address",
          "name": "newImplementation",
          "type": "address"
        }
      ],
      "name": "upgradeTo",
      "outputs": [],
      "stateMutability": "nonpayable",
      "type": "function"
    },
    {
      "inputs": [
        {
          "internalType": "address",
          "name": "newImplementation",
          "type": "address"
        },
        {
          "internalType": "bytes",
          "name": "data",
          "type": "bytes"
        }
      ],
      "name": "upgradeToAndCall",
      "outputs": [],
      "stateMutability": "payable",
      "type": "function"
    },
    {
      "inputs": [
        {
          "internalType": "address",
          "name": "",
          "type": "address"
        },
        {
          "internalType": "address",
          "name": "",
          "type": "address"
        }
      ],
      "name": "validatorBalance",
      "outputs": [
        {
          "internalType": "uint256",
          "name": "",
          "type": "uint256"
        }
      ],
      "stateMutability": "view",
      "type": "function"
    },
    {
      "inputs": [
        {
          "internalType": "address",
          "name": "",
          "type": "address"
        }
      ],
      "name": "validatorNativeBalance",
      "outputs": [
        {
          "internalType": "uint256",
          "name": "",
          "type": "uint256"
        }
      ],
      "stateMutability": "view",
      "type": "function"
    },
    {
      "inputs": [
        {
          "internalType": "address",
          "name": "token",
          "type": "address"
        },
        {
          "internalType": "uint256",
          "name": "amount",
          "type": "uint256"
        }
      ],
      "name": "withdraw",
      "outputs": [],
      "stateMutability": "nonpayable",
      "type": "function"
    }
  ],
  "bytecode": "0x60a06040523073ffffffffffffffffffffffffffffffffffffffff1660809073ffffffffffffffffffffffffffffffffffffffff1681525034801561004357600080fd5b50608051612cfb61007b600039600081816104d00152818161055e015281816106bb0152818161074901526107f90152612cfb6000f3fe60806040526004361061011f5760003560e01c80637ce8b8d5116100a05780639bc7c586116100645780639bc7c58614610384578063b24bcee8146103c1578063f0da53d3146103ea578063f2fde38b14610427578063f3fef3a3146104505761011f565b80637ce8b8d5146102d25780638129fc1c1461030f578063814c92dc146103265780638da5cb5b1461033057806397feb9261461035b5761011f565b80634f1ef286116100e75780634f1ef2861461022d57806352d1902d146102495780636d77d5b614610274578063715018a6146102b157806379433d8b146102c85761011f565b806315bc887f1461012457806327705548146101615780632d809cb61461019e5780633659cfe6146101db5780633816a29214610204575b600080fd5b34801561013057600080fd5b5061014b60048036038101906101469190611de6565b610479565b6040516101589190611e3f565b60405180910390f35b34801561016d57600080fd5b5061018860048036038101906101839190611e5a565b61049e565b6040516101959190611e3f565b60405180910390f35b3480156101aa57600080fd5b506101c560048036038101906101c09190611e5a565b6104b6565b6040516101d29190611e3f565b60405180910390f35b3480156101e757600080fd5b5061020260048036038101906101fd9190611e5a565b6104ce565b005b34801561021057600080fd5b5061022b60048036038101906102269190611ebf565b610656565b005b61024760048036038101906102429190612045565b6106b9565b005b34801561025557600080fd5b5061025e6107f5565b60405161026b91906120ba565b60405180910390f35b34801561028057600080fd5b5061029b60048036038101906102969190611e5a565b6108ae565b6040516102a891906120e4565b60405180910390f35b3480156102bd57600080fd5b506102c6610904565b005b6102d0610918565b005b3480156102de57600080fd5b506102f960048036038101906102f49190611e5a565b610a65565b6040516103069190611e3f565b60405180910390f35b34801561031b57600080fd5b50610324610a7d565b005b61032e610bcf565b005b34801561033c57600080fd5b50610345610d1c565b604051610352919061210e565b60405180910390f35b34801561036757600080fd5b50610382600480360381019061037d9190612155565b610d46565b005b34801561039057600080fd5b506103ab60048036038101906103a69190611e5a565b610f9a565b6040516103b891906120e4565b60405180910390f35b3480156103cd57600080fd5b506103e860048036038101906103e39190612155565b610fba565b005b3480156103f657600080fd5b50610411600480360381019061040c9190611de6565b61120e565b60405161041e9190611e3f565b60405180910390f35b34801561043357600080fd5b5061044e60048036038101906104499190611e5a565b611233565b005b34801561045c57600080fd5b5061047760048036038101906104729190612155565b6112b6565b005b60ca602052816000526040600020602052806000526040600020600091509150505481565b60cb6020528060005260406000206000915090505481565b60ce6020528060005260406000206000915090505481565b7f000000000000000000000000000000000000000000000000000000000000000073ffffffffffffffffffffffffffffffffffffffff163073ffffffffffffffffffffffffffffffffffffffff160361055c576040517f08c379a000000000000000000000000000000000000000000000000000000000815260040161055390612218565b60405180910390fd5b7f000000000000000000000000000000000000000000000000000000000000000073ffffffffffffffffffffffffffffffffffffffff1661059b61168c565b73ffffffffffffffffffffffffffffffffffffffff16146105f1576040517f08c379a00000000000000000000000000000000000000000000000000000000081526004016105e8906122aa565b60405180910390fd5b6105fa816116e3565b61065381600067ffffffffffffffff81111561061957610618611f1a565b5b6040519080825280601f01601f19166020018201604052801561064b5781602001600182028036833780820191505090505b5060006116ee565b50565b61065e61185c565b8060c960008473ffffffffffffffffffffffffffffffffffffffff1673ffffffffffffffffffffffffffffffffffffffff16815260200190815260200160002060006101000a81548160ff0219169083151502179055505050565b7f000000000000000000000000000000000000000000000000000000000000000073ffffffffffffffffffffffffffffffffffffffff163073ffffffffffffffffffffffffffffffffffffffff1603610747576040517f08c379a000000000000000000000000000000000000000000000000000000000815260040161073e90612218565b60405180910390fd5b7f000000000000000000000000000000000000000000000000000000000000000073ffffffffffffffffffffffffffffffffffffffff1661078661168c565b73ffffffffffffffffffffffffffffffffffffffff16146107dc576040517f08c379a00000000000000000000000000000000000000000000000000000000081526004016107d3906122aa565b60405180910390fd5b6107e5826116e3565b6107f1828260016116ee565b5050565b60007f000000000000000000000000000000000000000000000000000000000000000073ffffffffffffffffffffffffffffffffffffffff163073ffffffffffffffffffffffffffffffffffffffff1614610885576040517f08c379a000000000000000000000000000000000000000000000000000000000815260040161087c9061233c565b60405180910390fd5b7f360894a13ba1a3210667c828492db98dca3e2076cc3735a920a3ca505d382bbc60001b905090565b600060c960008373ffffffffffffffffffffffffffffffffffffffff1673ffffffffffffffffffffffffffffffffffffffff16815260200190815260200160002060009054906101000a900460ff169050919050565b61090c61185c565b61091660006118da565b565b6000341161095b576040517f08c379a0000000000000000000000000000000000000000000000000000000008152600401610952906123a8565b60405180910390fd5b3460cb60003373ffffffffffffffffffffffffffffffffffffffff1673ffffffffffffffffffffffffffffffffffffffff16815260200190815260200160002060008282546109aa91906123f7565b925050819055503460ce60008073ffffffffffffffffffffffffffffffffffffffff1673ffffffffffffffffffffffffffffffffffffffff1681526020019081526020016000206000828254610a0091906123f7565b92505081905550600073ffffffffffffffffffffffffffffffffffffffff16343373ffffffffffffffffffffffffffffffffffffffff167f45f2f25efd2b06a1e2ad54e079f0c0a5b3adad82088add74e47576f4de988c5560405160405180910390a4565b60cd6020528060005260406000206000915090505481565b60008060019054906101000a900460ff16159050808015610aae5750600160008054906101000a900460ff1660ff16105b80610adb5750610abd306119a0565b158015610ada5750600160008054906101000a900460ff1660ff16145b5b610b1a576040517f08c379a0000000000000000000000000000000000000000000000000000000008152600401610b119061249d565b60405180910390fd5b60016000806101000a81548160ff021916908360ff1602179055508015610b57576001600060016101000a81548160ff0219169083151502179055505b610b5f6119c3565b610b67611a1c565b610b7360006001610656565b8015610bcc5760008060016101000a81548160ff0219169083151502179055507f7f26b83ff96e1f2b6a682f133852f6798a09c465da95921460cefb38474024986001604051610bc3919061250f565b60405180910390a15b50565b60003411610c12576040517f08c379a0000000000000000000000000000000000000000000000000000000008152600401610c09906123a8565b60405180910390fd5b3460cd60003373ffffffffffffffffffffffffffffffffffffffff1673ffffffffffffffffffffffffffffffffffffffff1681526020019081526020016000206000828254610c6191906123f7565b925050819055503460ce60008073ffffffffffffffffffffffffffffffffffffffff1673ffffffffffffffffffffffffffffffffffffffff1681526020019081526020016000206000828254610cb791906123f7565b92505081905550600073ffffffffffffffffffffffffffffffffffffffff16343373ffffffffffffffffffffffffffffffffffffffff167f45f2f25efd2b06a1e2ad54e079f0c0a5b3adad82088add74e47576f4de988c5560405160405180910390a4565b6000609760009054906101000a900473ffffffffffffffffffffffffffffffffffffffff16905090565b610d4f826108ae565b610d8e576040517f08c379a0000000000000000000000000000000000000000000000000000000008152600401610d8590612576565b60405180910390fd5b60008111610dd1576040517f08c379a0000000000000000000000000000000000000000000000000000000008152600401610dc8906123a8565b60405180910390fd5b8173ffffffffffffffffffffffffffffffffffffffff166323b872dd3330846040518463ffffffff1660e01b8152600401610e0e93929190612596565b6020604051808303816000875af1158015610e2d573d6000803e3d6000fd5b505050506040513d601f19601f82011682018060405250810190610e5191906125e2565b508060ca60003373ffffffffffffffffffffffffffffffffffffffff1673ffffffffffffffffffffffffffffffffffffffff16815260200190815260200160002060008473ffffffffffffffffffffffffffffffffffffffff1673ffffffffffffffffffffffffffffffffffffffff1681526020019081526020016000206000828254610ede91906123f7565b925050819055508060ce60008473ffffffffffffffffffffffffffffffffffffffff1673ffffffffffffffffffffffffffffffffffffffff1681526020019081526020016000206000828254610f3491906123f7565b925050819055508173ffffffffffffffffffffffffffffffffffffffff16813373ffffffffffffffffffffffffffffffffffffffff167f45f2f25efd2b06a1e2ad54e079f0c0a5b3adad82088add74e47576f4de988c5560405160405180910390a45050565b60c96020528060005260406000206000915054906101000a900460ff1681565b610fc3826108ae565b611002576040517f08c379a0000000000000000000000000000000000000000000000000000000008152600401610ff990612576565b60405180910390fd5b60008111611045576040517f08c379a000000000000000000000000000000000000000000000000000000000815260040161103c906123a8565b60405180910390fd5b8173ffffffffffffffffffffffffffffffffffffffff166323b872dd3330846040518463ffffffff1660e01b815260040161108293929190612596565b6020604051808303816000875af11580156110a1573d6000803e3d6000fd5b505050506040513d601f19601f820116820180604052508101906110c591906125e2565b508060cc60003373ffffffffffffffffffffffffffffffffffffffff1673ffffffffffffffffffffffffffffffffffffffff16815260200190815260200160002060008473ffffffffffffffffffffffffffffffffffffffff1673ffffffffffffffffffffffffffffffffffffffff168152602001908152602001600020600082825461115291906123f7565b925050819055508060ce60008473ffffffffffffffffffffffffffffffffffffffff1673ffffffffffffffffffffffffffffffffffffffff16815260200190815260200160002060008282546111a891906123f7565b925050819055508173ffffffffffffffffffffffffffffffffffffffff16813373ffffffffffffffffffffffffffffffffffffffff167f45f2f25efd2b06a1e2ad54e079f0c0a5b3adad82088add74e47576f4de988c5560405160405180910390a45050565b60cc602052816000526040600020602052806000526040600020600091509150505481565b61123b61185c565b600073ffffffffffffffffffffffffffffffffffffffff168173ffffffffffffffffffffffffffffffffffffffff16036112aa576040517f08c379a00000000000000000000000000000000000000000000000000000000081526004016112a190612681565b60405180910390fd5b6112b3816118da565b50565b6112be61185c565b6112c7826108ae565b611306576040517f08c379a00000000000000000000000000000000000000000000000000000000081526004016112fd90612576565b60405180910390fd5b60008111611349576040517f08c379a0000000000000000000000000000000000000000000000000000000008152600401611340906123a8565b60405180910390fd5b8060ce60008473ffffffffffffffffffffffffffffffffffffffff1673ffffffffffffffffffffffffffffffffffffffff1681526020019081526020016000205410156113cb576040517f08c379a00000000000000000000000000000000000000000000000000000000081526004016113c2906126ed565b60405180910390fd5b600073ffffffffffffffffffffffffffffffffffffffff168273ffffffffffffffffffffffffffffffffffffffff16146115295760008273ffffffffffffffffffffffffffffffffffffffff1663a9059cbb60e01b338460405160240161143392919061270d565b604051602081830303815290604052907bffffffffffffffffffffffffffffffffffffffffffffffffffffffff19166020820180517bffffffffffffffffffffffffffffffffffffffffffffffffffffffff838183161783525050505060405161149d91906127a7565b6000604051808303816000865af19150503d80600081146114da576040519150601f19603f3d011682016040523d82523d6000602084013e6114df565b606091505b5050905080611523576040517f08c379a000000000000000000000000000000000000000000000000000000000815260040161151a9061280a565b60405180910390fd5b506115d7565b60003373ffffffffffffffffffffffffffffffffffffffff168260405161154f90612850565b60006040518083038185875af1925050503d806000811461158c576040519150601f19603f3d011682016040523d82523d6000602084013e611591565b606091505b50509050806115d5576040517f08c379a00000000000000000000000000000000000000000000000000000000081526004016115cc9061280a565b60405180910390fd5b505b8060ce60008473ffffffffffffffffffffffffffffffffffffffff1673ffffffffffffffffffffffffffffffffffffffff16815260200190815260200160002060008282546116269190612865565b925050819055508173ffffffffffffffffffffffffffffffffffffffff16813373ffffffffffffffffffffffffffffffffffffffff167fe9171aeff46c37ab955b8aff908e14ae9732bd06634fa131226cfe5c25bfd2fb60405160405180910390a45050565b60006116ba7f360894a13ba1a3210667c828492db98dca3e2076cc3735a920a3ca505d382bbc60001b611a6d565b60000160009054906101000a900473ffffffffffffffffffffffffffffffffffffffff16905090565b6116eb61185c565b50565b61171a7f4910fdfa16fed3260ed0e7147f7cc6da11a60208b5b9406d12a635614ffd914360001b611a77565b60000160009054906101000a900460ff161561173e5761173983611a81565b611857565b8273ffffffffffffffffffffffffffffffffffffffff166352d1902d6040518163ffffffff1660e01b8152600401602060405180830381865afa9250505080156117a657506040513d601f19601f820116820180604052508101906117a391906128c5565b60015b6117e5576040517f08c379a00000000000000000000000000000000000000000000000000000000081526004016117dc90612964565b60405180910390fd5b7f360894a13ba1a3210667c828492db98dca3e2076cc3735a920a3ca505d382bbc60001b811461184a576040517f08c379a0000000000000000000000000000000000000000000000000000000008152600401611841906129f6565b60405180910390fd5b50611856838383611b3a565b5b505050565b611864611b66565b73ffffffffffffffffffffffffffffffffffffffff16611882610d1c565b73ffffffffffffffffffffffffffffffffffffffff16146118d8576040517f08c379a00000000000000000000000000000000000000000000000000000000081526004016118cf90612a62565b60405180910390fd5b565b6000609760009054906101000a900473ffffffffffffffffffffffffffffffffffffffff16905081609760006101000a81548173ffffffffffffffffffffffffffffffffffffffff021916908373ffffffffffffffffffffffffffffffffffffffff1602179055508173ffffffffffffffffffffffffffffffffffffffff168173ffffffffffffffffffffffffffffffffffffffff167f8be0079c531659141344cd1fd0a4f28419497f9722a3daafe3b4186f6b6457e060405160405180910390a35050565b6000808273ffffffffffffffffffffffffffffffffffffffff163b119050919050565b600060019054906101000a900460ff16611a12576040517f08c379a0000000000000000000000000000000000000000000000000000000008152600401611a0990612af4565b60405180910390fd5b611a1a611b6e565b565b600060019054906101000a900460ff16611a6b576040517f08c379a0000000000000000000000000000000000000000000000000000000008152600401611a6290612af4565b60405180910390fd5b565b6000819050919050565b6000819050919050565b611a8a816119a0565b611ac9576040517f08c379a0000000000000000000000000000000000000000000000000000000008152600401611ac090612b86565b60405180910390fd5b80611af67f360894a13ba1a3210667c828492db98dca3e2076cc3735a920a3ca505d382bbc60001b611a6d565b60000160006101000a81548173ffffffffffffffffffffffffffffffffffffffff021916908373ffffffffffffffffffffffffffffffffffffffff16021790555050565b611b4383611bcf565b600082511180611b505750805b15611b6157611b5f8383611c1e565b505b505050565b600033905090565b600060019054906101000a900460ff16611bbd576040517f08c379a0000000000000000000000000000000000000000000000000000000008152600401611bb490612af4565b60405180910390fd5b611bcd611bc8611b66565b6118da565b565b611bd881611a81565b8073ffffffffffffffffffffffffffffffffffffffff167fbc7cd75a20ee27fd9adebab32041f755214dbc6bffa90cc0225b39da2e5c2d3b60405160405180910390a250565b6060611c29836119a0565b611c68576040517f08c379a0000000000000000000000000000000000000000000000000000000008152600401611c5f90612c18565b60405180910390fd5b6000808473ffffffffffffffffffffffffffffffffffffffff1684604051611c9091906127a7565b600060405180830381855af49150503d8060008114611ccb576040519150601f19603f3d011682016040523d82523d6000602084013e611cd0565b606091505b5091509150611cf88282604051806060016040528060278152602001612c9f60279139611d02565b9250505092915050565b60608315611d1257829050611d1d565b611d1c8383611d24565b5b9392505050565b600082511115611d375781518083602001fd5b806040517f08c379a0000000000000000000000000000000000000000000000000000000008152600401611d6b9190612c7c565b60405180910390fd5b6000604051905090565b600080fd5b600080fd5b600073ffffffffffffffffffffffffffffffffffffffff82169050919050565b6000611db382611d88565b9050919050565b611dc381611da8565b8114611dce57600080fd5b50565b600081359050611de081611dba565b92915050565b60008060408385031215611dfd57611dfc611d7e565b5b6000611e0b85828601611dd1565b9250506020611e1c85828601611dd1565b9150509250929050565b6000819050919050565b611e3981611e26565b82525050565b6000602082019050611e546000830184611e30565b92915050565b600060208284031215611e7057611e6f611d7e565b5b6000611e7e84828501611dd1565b91505092915050565b60008115159050919050565b611e9c81611e87565b8114611ea757600080fd5b50565b600081359050611eb981611e93565b92915050565b60008060408385031215611ed657611ed5611d7e565b5b6000611ee485828601611dd1565b9250506020611ef585828601611eaa565b9150509250929050565b600080fd5b600080fd5b6000601f19601f8301169050919050565b7f4e487b7100000000000000000000000000000000000000000000000000000000600052604160045260246000fd5b611f5282611f09565b810181811067ffffffffffffffff82111715611f7157611f70611f1a565b5b80604052505050565b6000611f84611d74565b9050611f908282611f49565b919050565b600067ffffffffffffffff821115611fb057611faf611f1a565b5b611fb982611f09565b9050602081019050919050565b82818337600083830152505050565b6000611fe8611fe384611f95565b611f7a565b90508281526020810184848401111561200457612003611f04565b5b61200f848285611fc6565b509392505050565b600082601f83011261202c5761202b611eff565b5b813561203c848260208601611fd5565b91505092915050565b6000806040838503121561205c5761205b611d7e565b5b600061206a85828601611dd1565b925050602083013567ffffffffffffffff81111561208b5761208a611d83565b5b61209785828601612017565b9150509250929050565b6000819050919050565b6120b4816120a1565b82525050565b60006020820190506120cf60008301846120ab565b92915050565b6120de81611e87565b82525050565b60006020820190506120f960008301846120d5565b92915050565b61210881611da8565b82525050565b600060208201905061212360008301846120ff565b92915050565b61213281611e26565b811461213d57600080fd5b50565b60008135905061214f81612129565b92915050565b6000806040838503121561216c5761216b611d7e565b5b600061217a85828601611dd1565b925050602061218b85828601612140565b9150509250929050565b600082825260208201905092915050565b7f46756e6374696f6e206d7573742062652063616c6c6564207468726f7567682060008201527f64656c656761746563616c6c0000000000000000000000000000000000000000602082015250565b6000612202602c83612195565b915061220d826121a6565b604082019050919050565b60006020820190508181036000830152612231816121f5565b9050919050565b7f46756e6374696f6e206d7573742062652063616c6c6564207468726f7567682060008201527f6163746976652070726f78790000000000000000000000000000000000000000602082015250565b6000612294602c83612195565b915061229f82612238565b604082019050919050565b600060208201905081810360008301526122c381612287565b9050919050565b7f555550535570677261646561626c653a206d757374206e6f742062652063616c60008201527f6c6564207468726f7567682064656c656761746563616c6c0000000000000000602082015250565b6000612326603883612195565b9150612331826122ca565b604082019050919050565b6000602082019050818103600083015261235581612319565b9050919050565b7f496e76616c696420616d6f756e74000000000000000000000000000000000000600082015250565b6000612392600e83612195565b915061239d8261235c565b602082019050919050565b600060208201905081810360008301526123c181612385565b9050919050565b7f4e487b7100000000000000000000000000000000000000000000000000000000600052601160045260246000fd5b600061240282611e26565b915061240d83611e26565b9250828201905080821115612425576124246123c8565b5b92915050565b7f496e697469616c697a61626c653a20636f6e747261637420697320616c72656160008201527f647920696e697469616c697a6564000000000000000000000000000000000000602082015250565b6000612487602e83612195565b91506124928261242b565b604082019050919050565b600060208201905081810360008301526124b68161247a565b9050919050565b6000819050919050565b600060ff82169050919050565b6000819050919050565b60006124f96124f46124ef846124bd565b6124d4565b6124c7565b9050919050565b612509816124de565b82525050565b60006020820190506125246000830184612500565b92915050565b7f496e76616c696420746f6b656e00000000000000000000000000000000000000600082015250565b6000612560600d83612195565b915061256b8261252a565b602082019050919050565b6000602082019050818103600083015261258f81612553565b9050919050565b60006060820190506125ab60008301866120ff565b6125b860208301856120ff565b6125c56040830184611e30565b949350505050565b6000815190506125dc81611e93565b92915050565b6000602082840312156125f8576125f7611d7e565b5b6000612606848285016125cd565b91505092915050565b7f4f776e61626c653a206e6577206f776e657220697320746865207a65726f206160008201527f6464726573730000000000000000000000000000000000000000000000000000602082015250565b600061266b602683612195565b91506126768261260f565b604082019050919050565b6000602082019050818103600083015261269a8161265e565b9050919050565b7f496e73756666696369656e742062616c616e6365000000000000000000000000600082015250565b60006126d7601483612195565b91506126e2826126a1565b602082019050919050565b60006020820190508181036000830152612706816126ca565b9050919050565b600060408201905061272260008301856120ff565b61272f6020830184611e30565b9392505050565b600081519050919050565b600081905092915050565b60005b8381101561276a57808201518184015260208101905061274f565b60008484015250505050565b600061278182612736565b61278b8185612741565b935061279b81856020860161274c565b80840191505092915050565b60006127b38284612776565b915081905092915050565b7f5472616e73666572206661696c65640000000000000000000000000000000000600082015250565b60006127f4600f83612195565b91506127ff826127be565b602082019050919050565b60006020820190508181036000830152612823816127e7565b9050919050565b50565b600061283a600083612741565b91506128458261282a565b600082019050919050565b600061285b8261282d565b9150819050919050565b600061287082611e26565b915061287b83611e26565b9250828203905081811115612893576128926123c8565b5b92915050565b6128a2816120a1565b81146128ad57600080fd5b50565b6000815190506128bf81612899565b92915050565b6000602082840312156128db576128da611d7e565b5b60006128e9848285016128b0565b91505092915050565b7f45524331393637557067726164653a206e657720696d706c656d656e7461746960008201527f6f6e206973206e6f742055555053000000000000000000000000000000000000602082015250565b600061294e602e83612195565b9150612959826128f2565b604082019050919050565b6000602082019050818103600083015261297d81612941565b9050919050565b7f45524331393637557067726164653a20756e737570706f727465642070726f7860008201527f6961626c65555549440000000000000000000000000000000000000000000000602082015250565b60006129e0602983612195565b91506129eb82612984565b604082019050919050565b60006020820190508181036000830152612a0f816129d3565b9050919050565b7f4f776e61626c653a2063616c6c6572206973206e6f7420746865206f776e6572600082015250565b6000612a4c602083612195565b9150612a5782612a16565b602082019050919050565b60006020820190508181036000830152612a7b81612a3f565b9050919050565b7f496e697469616c697a61626c653a20636f6e7472616374206973206e6f74206960008201527f6e697469616c697a696e67000000000000000000000000000000000000000000602082015250565b6000612ade602b83612195565b9150612ae982612a82565b604082019050919050565b60006020820190508181036000830152612b0d81612ad1565b9050919050565b7f455243313936373a206e657720696d706c656d656e746174696f6e206973206e60008201527f6f74206120636f6e747261637400000000000000000000000000000000000000602082015250565b6000612b70602d83612195565b9150612b7b82612b14565b604082019050919050565b60006020820190508181036000830152612b9f81612b63565b9050919050565b7f416464726573733a2064656c65676174652063616c6c20746f206e6f6e2d636f60008201527f6e74726163740000000000000000000000000000000000000000000000000000602082015250565b6000612c02602683612195565b9150612c0d82612ba6565b604082019050919050565b60006020820190508181036000830152612c3181612bf5565b9050919050565b600081519050919050565b6000612c4e82612c38565b612c588185612195565b9350612c6881856020860161274c565b612c7181611f09565b840191505092915050565b60006020820190508181036000830152612c968184612c43565b90509291505056fe416464726573733a206c6f772d6c6576656c2064656c65676174652063616c6c206661696c6564a26469706673582212200fa3a53543a46edd65ae43732a1fef947f23dbf6985bb000786cb63fdeefb48a64736f6c63430008120033",
  "linkReferences": {},
  "deployedLinkReferences": {}
}